:020000040800F2
:10000000180400209D010008210B0008A90A00081F
:100010001D0B0008A9020008510C00080000000098
:10002000000000000000000000000000550B000868
:10003000AD02000800000000510B0008890B000809
:10004000B7010008B7010008B7010008B7010008B0
:10005000B7010008B7010008B7010008B7010008A0
:10006000B7010008B7010008B7010008B701000890
:10007000B7010008B7010008B7010008B701000880
:10008000B7010008B7010008B7010008B701000870
:10009000B7010008B7010008B7010008B701000860
:1000A000B7010008B7010008B7010008B701000850
:1000B000B7010008B7010008B7010008B701000840
:1000C000B7010008B7010008B7010008B701000830
:1000D000B7010008B7010008B7010008B701000820
:1000E000B7010008B7010008B7010008B701000810
:1000F000B7010008B7010008B7010008B701000800
:10010000B7010008B7010008B7010008B7010008EF
:10011000B7010008B7010008B7010008B7010008DF
:10012000B7010008B7010008B7010008B7010008CF
:10013000B7010008B7010008B7010008B7010008BF
:10014000B7010008B7010008B7010008B7010008AF
:10015000B7010008B7010008B7010008B70100089F
:10016000B7010008B7010008B7010008B70100088F
:10017000B7010008B7010008B7010008000000003F
:10018000B7010008B7010008DFF80CD000F07AF8DA
:1001900000480047A90C00081804002006488047C2
:1001A00006480047FEE7FEE7FEE7FEE7FEE7FEE75C
:1001B000FEE7FEE7FEE7FEE7350C000889010008D0
:1001C0002DE9F05F0546002092469B46884606468C
:1001D000814640241BE0284641464746224600F01F
:1001E00041F853465A46C01A914110D31146184659
:1001F000224600F028F82D1A67EB01084F462246E8
:100200000120002100F01FF817EB00094E41201ECD
:10021000A4F10104DFDC484631462A464346BDE8E6
:10022000F09FD2B201E000F8012B491EFBD27047CB
:100230000022F6E710B513460A4604461946FFF7B2
:10024000F0FF204610BD202A04DB203A00FA02F11C
:10025000002070479140C2F1200320FA03F31943B4
:1002600090407047202A04DB203A21FA02F0002156
:10027000704721FA02F3D040C2F1200291400843B6
:1002800019467047064C074D06E0E06840F0010350
:1002900094E8070098471034AC42F6D3FFF778FF94
:1002A000400D0008600D0008FEE7000070470000E8
:1002B000EFF3108072B600BFFEE70000B0B5044651
:1002C00000F0E8F8054640F20400C2F200000078B1
:1002D000611C18BF044400BF00F0DCF8401BA042C2
:1002E000FAD3B0BD2DE9F04F83B000F13E4202F1E8
:1002F000FF724FEAB22241F600470192C4F20207B0
:100300000822012600254FF000084FF00009B842EE
:1003100008BF0722009209E009F1010908F1040869
:10032000B9F1100F05F1020500F0A3800C6806FA80
:1003300009FB14EA0B0CEFD0D1F804A0BAF1120FAC
:1003400017D806FA0AF414F0061F12D084680322A4
:10035000CF6802FA05FE24EA0E04AF402743876007
:100360004768CAF3001427EA0B0704FA09F4274385
:1003700047600322C76802FA05F48A68A743AA40C7
:100380003A434AF010076FEA040E122FC26010D1F0
:100390006FF0030202EA59020244176A08F01C06D1
:1003A0000F230C69B34027EA0303B440012623431B
:1003B000136202684B6802EA0E0203F00307AF40C3
:1003C0003A43DB000260A7D5002243F644030292C1
:1003D000C4F202031A6843F6004442F480421A60F1
:1003E0001A68C4F2010402F480420292029A29F0CF
:1003F00003024FF6084A2244CFF6FF7A52F80A3039
:1004000008F00C070F26BE4023EA060E019B009E53
:10041000072B38BF1E4606FA07F747EA0E0342F8D5
:100420000A3022684B6842EA0C07DE0358BF22EA12
:100430000C07276062689E0342EA0C0758BF22EA55
:100440000C076760A268DE0242EA0C0758BF22EA86
:100450000C07A76043F60C47C4F201073A689B02F9
:100460004FF0010642EA0C0358BF22EA0C033B603E
:1004700052E703B0BDE8F08F42690A408A4208BFE4
:100480000904816170470000002A08BF09048161E6
:100490007047000040F21000C2F200000068704790
:1004A00040F2040040F21001C2F20000C2F200016A
:1004B00000780A68104408607047000080B543F671
:1004C0000040C4F20200016841F40071016001685B
:1004D00041F480610160016841F480710160032092
:1004E00000F05CF8002000F005F800F02BF8002088
:1004F00080BD0000B0B540F20402C2F2000240F23A
:1005000000011278C2F200014FF47A730968B3FB5C
:10051000F2F20446B1FBF2F1084600F0C1FA0F2CEA
:100520004FF001050CD858B94FF0FF30214600229A
:10053000002500F023F840F20800C2F20000046039
:100540002846B0BD82B0002043F640010190C4F2BD
:1005500002014A6842F480424A604A6802F48042DA
:100560000192019A0090086840F080500860086885
:1005700000F080500090009802B0704770B51446AB
:100580000D46064600F066FB2946224600F0CAFAF0
:100590000146304600F066FB70BD000080B500F0FB
:1005A00073FB80BD2DE9F041002800F08B8043F6FD
:1005B0000808C4F202080446D8F8F8030D4600F013
:1005C0000F00884207D288F8F853D8F8F80300F0F3
:1005D0000F00A84276D12068810717D5410705D5BD
:1005E000D8F8001041F4E051C8F80010010705D513
:1005F000D8F8001041F46041C8F80010D8F8001095
:10060000A26821F0F0011143C8F80010C0073FD1E3
:10061000D8F8F80300F00F00A84207D988F8F8537B
:10062000D8F8F80300F00F00A8424BD1206841072A
:1006300007D5D8F80010E26821F4E0511143C8F85A
:100640000010000708D5D8F80000216920F46040A8
:1006500040EAC100C8F8000000F054F8D8F80010D3
:1006600040F62E52C1F30311C0F60002515C40F275
:10067000000220FA01F140F20800C2F20000006816
:10068000C2F200021160FFF735FF0020BDE8F081E3
:100690006068811E022907D258F8081C89015CBFD6
:1006A0000120BDE8F08110E0012807D158F8081CAE
:1006B00089035CBF0120BDE8F08106E058F8081C02
:1006C000890702D40120BDE8F081D8F8001021F09C
:1006D00003010843C8F80000FFF7DCFE064641F2BC
:1006E000883700BFD8F80000616800F00C00B0EB5C
:1006F000810F8DD0FFF7CEFE801BB842F2D90320C8
:10070000BDE8F08110B543F60404C4F20204606849
:1007100000F00C0008280AD0042819BF42F200405B
:10072000C0F2F40041F60030C0F2B70010BD2068FE
:1007300021682368490241F60031C0F2B70100F098
:100740003F02C3F388105CBF42F20041C0F2F401E3
:10075000A1FB00010023FFF733FD21680222C1F352
:10076000014102EB4101B0FBF1F010BD2DE9F04178
:1007700082B0002800F097800446007843F6000617
:10078000C007C4F2020641D0B06800F00C00042893
:1007900005D13068800339D56068B8BB83E0B068A4
:1007A00000F00C00082802D170684002F1D465689E
:1007B000B5F5803F06D03068B5F5A02F06D140F4DE
:1007C00080203060306840F4803005E020F48030D4
:1007D0003060306820F480203060FFF75BFE002D31
:1007E000054610D03068800310D4FFF753FE401B3D
:1007F0006428F7D91AE100BFFFF74CFE401B6428BC
:100800004FF003004CD830688003F5D4207880077F
:100810001AD5B06810F00C0F09D0B06800F00C00C9
:10082000082840F084807068400200F180803068C1
:10083000800702D5E068012835D13068216920F0B1
:10084000F80040EAC1003060207800072FD42078FB
:10085000400742D4A56915B3B06800F00C00082821
:1008600040F09880012D1ED07068E16900F480028C
:100870008A4218D1216A00F03F028A4213D147F61A
:10088000C071626A014091420DD1A16A00F4403208
:100890008A4208D1E16A00F07060884203D10020EA
:1008A00002B0BDE8F081012002B0BDE8F0816069CE
:1008B000002840F20000C4F247205AD00121C0F8BD
:1008C000801EFFF7E7FD0546706F8007BFD4FFF776
:1008D000E1FD401B0228F7D9A8E0306C4FF000087A
:1008E000C0000CD4CDF80480306C4FF0010840F00B
:1008F00080503064306C00F080500190019847F2D5
:100900000007C4F200073868C00525D4386840F4F1
:1009100080703860FFF7BEFD054600BF3868C0052F
:100920001AD4FFF7B7FD401B0228F7D97EE0E06834
:10093000002851D00020C4F2472001210160FFF7B8
:10094000A9FD0546306880073FF577AFFFF7A2FDA8
:10095000401B0228F6D969E0A568012D05D0306F4B
:10096000052D4DD140F004003067306F40F001009C
:100970004CE00021C0F8801EFFF78CFD054600BF4B
:10098000706F80077FF563AFFFF784FD401B02287F
:10099000F6D94BE00027C4F2472700203866FFF75E
:1009A00079FD022D05460BD13068800156D5FFF741
:1009B00071FD401B02284FF00300F5D970E700BF1E
:1009C000306880017FF56BAFFFF764FD401B0228A4
:1009D0004FF00300F4D963E70020C4F24720002160
:1009E0000160FFF757FD0546306880077FF52CAFA3
:1009F000FFF750FD401B02284FF00300F4D94FE7EA
:100A000020F001003067306F20F004003067FFF7FE
:100A100041FD002D054641F2883713D0306F800725
:100A200013D4FFF737FD401BB842F7D9032002B0BB
:100A3000BDE8F081FFF72EFD401BB8424FF00300E8
:100A40003FF62EAF306F8007F4D4B8F1000F3FF4BB
:100A500001AF306C20F080503064FBE604F11C05DF
:100A60002FCD084340EA8210D9034FF6FF7291431D
:100A7000A1F5803140EA05600843706001203866C6
:100A8000FFF708FD044600BF306880013FF507AF5F
:100A9000FFF700FD001B02284FF00300F4D9FFE62A
:100AA00080B500F059F880BDFEE7000070B586B053
:100AB000002543F630000595CDE90355CDE90155F4
:100AC0000095C4F20200016841F6004441F00101C2
:100AD00001600168C4F2020401F001010091009973
:100AE00000950168002241F08001016000684FF428
:100AF000E05100F080000090009820464FF4E0564E
:100B0000FFF7C2FC0120029002200196CDE9030507
:100B100001A92046FFF7E6FB06B070BDFEE7000026
:100B2000FEE7000000F0070080F00703042B28BF59
:100B300004234FF0FF3C03380CFA03F338BF0020C6
:100B4000994381400CFA00F022EA00000843704704
:100B50007047000070470000B0B501380024B4EBC6
:100B6000106F1CBF0120B0BD4EF21005CEF2000583
:100B700068604FF0FF300F2100F074F80720AC6080
:100B800028602046B0BD000080B5FFF789FC80BD1D
:100B900070B592B006AC20463021FFF749FB002526
:100BA00043F640000595CDE90355CDE90155009583
:100BB000C4F202000168022641F080510160006821
:100BC00000F080500090009847F200000095C4F2B9
:100BD0000000016841F480410160006800F4804039
:100BE00000900098012006904FF4803007904FF459
:100BF00080000D9006200E90A8200C96CDE90F06DF
:100C0000042011902046FFF7B1FD88B90F20CDE9EF
:100C100001064FF4A05004904FF48050059001A8B5
:100C200005210395FFF7BEFC002804BF12B070BD7C
:100C3000FFF73EFB4EF68850CEF20000016841F40B
:100C4000700101604FF0006140F8801C70470000A7
:100C5000FEE700004EF60C50CEF200000068C0F334
:100C6000022070474EF6145300F00F02CEF200033C
:100C700009011A4400F16043B0F1FF3FC8BF03F51A
:100C800064421170704700004EF60C51CEF2000124
:100C90000A684FF6FF031A4060F30A2242F08060B0
:100CA00040F0FD700860704741F60044C4F2020451
:100CB000FFF704FCFFF76CFFFFF7F8FE002500BF0D
:100CC000002600BF012700BF20464FF48061FFF7D8
:100CD000D3FBC820FFF7F2FA013FF5D020464FF4CE
:100CE0000061FFF7C9FBC820FFF7E8FA002E06F104
:100CF0000106E7D020464FF48051FFF7BDFBC82026
:100D0000FFF7DCFA002D05F1010518BF0025D7E734
:100D100002E008C8121F08C1002AFAD170477047C4
:100D2000002001E001C1121F002AFBD17047000022
:100D3000000000000000010203040607080900008B
:100D4000600D00080000002010000000100D0008D9
:100D5000700D00081000002008040000200D00089D
:100D60000024F4000100000010000000000000005A
:040000050800018965
:00000001FF
