:020000040800F2
:10000000580400209D010008790F0008810E0008A7
:10001000750F0008A90200084D120008000000003A
:10002000000000000000000000000000AD0F00080C
:10003000AD02000800000000A90F0008E10F000851
:10004000B7010008B7010008B7010008B7010008B0
:10005000B7010008B7010008B7010008B7010008A0
:10006000B7010008B7010008B7010008B701000890
:10007000B7010008B7010008B7010008B701000880
:10008000B7010008B7010008B7010008B701000870
:10009000B7010008B7010008B7010008B701000860
:1000A000B7010008A9100008B7010008B70100084F
:1000B000B7010008B7010008B7010008B701000840
:1000C000B7010008B7010008B7010008B701000830
:1000D000B7010008B7010008B7010008B701000820
:1000E000B7010008B7010008B7010008B701000810
:1000F000B7010008B7010008B7010008B701000800
:10010000B7010008B7010008B7010008B7010008EF
:10011000B7010008B7010008B7010008B7010008DF
:10012000B7010008B7010008B7010008B7010008CF
:10013000B7010008B7010008B7010008B7010008BF
:10014000B7010008B7010008B7010008B7010008AF
:10015000B7010008B7010008B7010008B70100089F
:10016000B7010008B7010008B7010008B70100088F
:10017000B7010008B7010008B7010008000000003F
:10018000B7010008B7010008DFF80CD000F07AF8DA
:1001900000480047C5120008580400200648804760
:1001A00006480047FEE7FEE7FEE7FEE7FEE7FEE75C
:1001B000FEE7FEE7FEE7FEE78D1000088901000874
:1001C0002DE9F05F0546002092469B46884606468C
:1001D000814640241BE0284641464746224600F01F
:1001E00041F853465A46C01A914110D31146184659
:1001F000224600F028F82D1A67EB01084F462246E8
:100200000120002100F01FF817EB00094E41201ECD
:10021000A4F10104DFDC484631462A464346BDE8E6
:10022000F09FD2B201E000F8012B491EFBD27047CB
:100230000022F6E710B513460A4604461946FFF7B2
:10024000F0FF204610BD202A04DB203A00FA02F11C
:10025000002070479140C2F1200320FA03F31943B4
:1002600090407047202A04DB203A21FA02F0002156
:10027000704721FA02F3D040C2F1200291400843B6
:1002800019467047064C074D06E0E06840F0010350
:1002900094E8070098471034AC42F6D3FFF778FF94
:1002A0001013000830130008FEE70000704700003C
:1002B000EFF3108072B600BFFEE700002DE9F04FAB
:1002C00083B000F13E4202F1FF724FEAB22241F6E2
:1002D00000470192C4F202070822012600254FF0D0
:1002E00000084FF00009B84208BF0722009209E059
:1002F00009F1010908F10408B9F1100F05F102052F
:1003000000F0A3800C6806FA09FB14EA0B0CEFD08E
:10031000D1F804A0BAF1120F17D806FA0AF414F0B3
:10032000061F12D084680322CF6802FA05FE24EA71
:100330000E04AF40274387604768CAF3001427EADA
:100340000B0704FA09F4274347600322C76802FA3F
:1003500005F48A68A743AA403A434AF010076FEAB7
:10036000040E122FC26010D16FF0030202EA59028C
:100370000244176A08F01C060F230C69B34027EAF1
:100380000303B44001262343136202684B6802EA68
:100390000E0203F00307AF403A43DB000260A7D52B
:1003A000002243F644030292C4F202031A6843F6A1
:1003B000004442F480421A601A68C4F2010402F454
:1003C00080420292029A29F003024FF6084A224420
:1003D000CFF6FF7A52F80A3008F00C070F26BE401D
:1003E00023EA060E019B009E072B38BF1E4606FA25
:1003F00007F747EA0E0342F80A3022684B6842EAE0
:100400000C07DE0358BF22EA0C07276062689E03D0
:1004100042EA0C0758BF22EA0C076760A268DE02B6
:1004200042EA0C0758BF22EA0C07A76043F60C47C4
:10043000C4F201073A689B024FF0010642EA0C033E
:1004400058BF22EA0C033B6052E703B0BDE8F08FCF
:1004500042690A408A4208BF09048161704700006E
:10046000002A08BF090481617047000040F254006F
:10047000C2F200000068704740F2040040F25401EC
:10048000C2F20000C2F2000100780A68104408605D
:100490007047000080B543F60040C4F202000168D6
:1004A00041F400710160016841F4806101600168FC
:1004B00041F480710160032000F060F8002000F03A
:1004C00005F800F02BF8002080BD0000B0B540F228
:1004D0000402C2F2000240F200011278C2F20001EE
:1004E0004FF47A730968B3FBF2F20446B1FBF2F100
:1004F000084600F0C5FA0F2C4FF001050CD858B98A
:100500004FF0FF3021460022002500F027F840F28E
:100510000800C2F2000004602846B0BD82B000208E
:1005200043F640010190C4F202014A6842F480425D
:100530004A604A6802F480420192019A0090086879
:1005400040F080500860086800F0805000900098EB
:1005500002B0704780B500F07BFE80BD70B51446D8
:100560000D46064600F084FE2946224600F006FDB0
:100570000146304600F084FE70BD000080B500F0FA
:1005800091FE80BD2DE9F041002800F08B8043F6FC
:100590000808C4F202080446D8F8F8030D4600F033
:1005A0000F00884207D288F8F853D8F8F80300F013
:1005B0000F00A84276D12068810717D5410705D5DD
:1005C000D8F8001041F4E051C8F80010010705D533
:1005D000D8F8001041F46041C8F80010D8F80010B5
:1005E000A26821F0F0011143C8F80010C0073FD104
:1005F000D8F8F80300F00F00A84207D988F8F8539C
:10060000D8F8F80300F00F00A8424BD1206841074A
:1006100007D5D8F80010E26821F4E0511143C8F87A
:100620000010000708D5D8F80000216920F46040C8
:1006300040EAC100C8F8000000F054F8D8F80010F3
:1006400041F20032C1F30311C0F60002515C40F2E6
:10065000000220FA01F140F20800C2F20000006836
:10066000C2F200021160FFF731FF0020BDE8F08107
:100670006068811E022907D258F8081C89015CBFF6
:100680000120BDE8F08110E0012807D158F8081CCE
:1006900089035CBF0120BDE8F08106E058F8081C22
:1006A000890702D40120BDE8F081D8F8001021F0BC
:1006B00003010843C8F80000FFF7D8FE064641F2E0
:1006C000883700BFD8F80000616800F00C00B0EB7C
:1006D000810F8DD0FFF7CAFE801BB842F2D90320EC
:1006E000BDE8F08110B543F60404C4F2020460686A
:1006F00000F00C0008280AD0042819BF42F200407C
:10070000C0F2F40041F60030C0F2B70010BD20681E
:1007100021682368490241F60031C0F2B70100F0B8
:100720003F02C3F388105CBF42F20041C0F2F40103
:10073000A1FB00010023FFF743FD21680222C1F362
:10074000014102EB4101B0FBF1F010BD2DE9F04198
:1007500082B0002800F097800446007843F6000637
:10076000C007C4F2020641D0B06800F00C000428B3
:1007700005D13068800339D56068B8BB83E0B068C4
:1007800000F00C00082802D170684002F1D46568BE
:10079000B5F5803F06D03068B5F5A02F06D140F4FE
:1007A00080203060306840F4803005E020F48030F4
:1007B0003060306820F480203060FFF757FE002D55
:1007C000054610D03068800310D4FFF74FFE401B61
:1007D0006428F7D91AE100BFFFF748FE401B6428E0
:1007E0004FF003004CD830688003F5D420788007A0
:1007F0001AD5B06810F00C0F09D0B06800F00C00EA
:10080000082840F084807068400200F180803068E1
:10081000800702D5E068012835D13068216920F0D1
:10082000F80040EAC1003060207800072FD420781B
:10083000400742D4A56915B3B06800F00C00082841
:1008400040F09880012D1ED07068E16900F48002AC
:100850008A4218D1216A00F03F028A4213D147F63A
:10086000C071626A014091420DD1A16A00F4403228
:100870008A4208D1E16A00F07060884203D100200A
:1008800002B0BDE8F081012002B0BDE8F0816069EE
:10089000002840F20000C4F247205AD00121C0F8DD
:1008A000801EFFF7E3FD0546706F8007BFD4FFF79A
:1008B000DDFD401B0228F7D9A8E0306C4FF000089E
:1008C000C0000CD4CDF80480306C4FF0010840F02B
:1008D00080503064306C00F080500190019847F2F5
:1008E0000007C4F200073868C00525D4386840F412
:1008F00080703860FFF7BAFD054600BF3868C00554
:100900001AD4FFF7B3FD401B0228F7D97EE0E06858
:10091000002851D00020C4F2472001210160FFF7D8
:10092000A5FD0546306880073FF577AFFFF79EFDD0
:10093000401B0228F6D969E0A568012D05D0306F6B
:10094000052D4DD140F004003067306F40F00100BC
:100950004CE00021C0F8801EFFF788FD054600BF6F
:10096000706F80077FF563AFFFF780FD401B0228A3
:10097000F6D94BE00027C4F2472700203866FFF77E
:1009800075FD022D05460BD13068800156D5FFF765
:100990006DFD401B02284FF00300F5D970E700BF42
:1009A000306880017FF56BAFFFF760FD401B0228C8
:1009B0004FF00300F4D963E70020C4F24720002180
:1009C0000160FFF753FD0546306880077FF52CAFC7
:1009D000FFF74CFD401B02284FF00300F4D94FE70E
:1009E00020F001003067306F20F004003067FFF71F
:1009F0003DFD002D054641F2883713D0306F80074A
:100A000013D4FFF733FD401BB842F7D9032002B0DF
:100A1000BDE8F081FFF72AFD401BB8424FF003000C
:100A20003FF62EAF306F8007F4D4B8F1000F3FF4DB
:100A300001AF306C20F080503064FBE604F11C05FF
:100A40002FCD084340EA8210D9034FF6FF7291433D
:100A5000A1F5803140EA05600843706001203866E6
:100A6000FFF704FD044600BF306880013FF507AF83
:100A7000FFF7FCFC001B02284FF00300F4D9FFE64F
:100A800080B500F095FA80BD704700007047000007
:100A900010B590F83C20012A4FF0020252D00123F9
:100AA00080F83C3080F83D200268D2F804E0D2F8AB
:100AB00008C00C682EF07003234341F2FF74C4F2A7
:100AC0000004A24253600DDC40F2FF73C4F2000345
:100AD0009A4215DCB2F1804F29D040F20043C4F2B3
:100AE000000322E040F2FF33C4F201039A4212DC19
:100AF00041F60003C4F200039A4218D0002312E02A
:100B000040F60003C4F200039A4210D040F60043BE
:100B1000C4F2000309E044F20003C4F201039A4264
:100B200005D040F20043C4F201039A4204D149685F
:100B30002CF08003194391600121002280F83D10C0
:100B400080F83C20104610BD002804BF01207047EB
:100B500010B5044690F83D0028B9002084F83C0008
:100B6000204600F00DF8022084F83D002068211D89
:100B700000F0A2FA012084F83D00002010BD000022
:100B800080B582B000680021C4F20101884201D022
:100B900002B080BD0020019043F64400C4F2020080
:100BA0000168002241F0010101600068002100F0AD
:100BB0000100019001981920FFF7D0FC1920FFF7E0
:100BC000C9FC02B080BD00000068C16841F00101AD
:100BD000C160816801F00701062903D0016841F076
:100BE000010101600020704710B5044690F83C00F8
:100BF00001284FF0020008BF10BD012284F83C20FC
:100C000084F83D0020684FF6777382689A438260CB
:100C10000A683F2A14DD5F2A18DD602A28D0B2F561
:100C2000005F2DD0702A40D1D1E9012CCB686146FC
:100C300000F0D4FA2068816841F07701816034E0E7
:100C40001F2A0FDC92B1102A10D02EE0402A23D0A8
:100C5000502A2AD14B68CA68194600F0D3FA206896
:100C6000502120E0202A01D0302A1ED111461AE05E
:100C70004B68CA68194600F0D7FA2068602112E074
:100C8000D1E9012CCB68614600F0A8FA20688168A0
:100C900041F48041816008E04B68CA68194600F061
:100CA000B1FA2068402100F0A5FA012084F83D0047
:100CB000002084F83C0010BD7047000010B50446C9
:100CC00000680169890744BFC1685FEA817138D44F
:100CD00020680169490744BFC1685FEA41713CD49B
:100CE00020680169090744BFC1685FEA017141D406
:100CF00020680169C90644BFC1685FEAC16145D483
:100D000020680169C9071CBFC1685FEAC1714AD187
:100D100020680169090644BFC1685FEA016149D4DE
:100D200020680169490644BFC1685FEA416148D44F
:100D300020680169890644BFC1685FEA816147D4C0
:100D400010BD6FF0020101610121217780698007E8
:100D500045D02046FFF7B0FF47E06FF00401016186
:100D600002212177806910F4407F41D02046FFF7AF
:100D7000A3FF43E06FF00801016104212177C069FE
:100D800080073ED02046FFF797FF40E06FF010014C
:100D9000016108212177C06910F4407F3AD02046D4
:100DA000FFF78AFF3CE06FF001010161204600F08F
:100DB0003FF8ADE76FF0800101612046FFF764FE68
:100DC000AEE76FF040010161204600F057F8AFE751
:100DD0006FF0200101612046FFF758FE10BD20464C
:100DE00000F022F8204600F021F8002020776FE77D
:100DF000204600F019F8204600F018F8002020776F
:100E00006EE7204600F010F8204600F00FF80020B2
:100E100020776DE7204600F007F8204600F006F83E
:100E2000002020776CE7000070470000704700004A
:100E300040F21401C2F20001884218BF704710B599
:100E400040F21000C2F20000016841F60044013196
:100E5000C4F20204016020464FF48061FFF7F8FA03
:100E600020464FF40061FFF7F3FA20464FF480511B
:100E7000FFF7EEFABDE81040704700007047000031
:100E8000FEE7000070B586B0002543F630000595FA
:100E9000CDE90355CDE901550095C4F20200016882
:100EA00041F6004441F0010101600168C4F202040E
:100EB00001F001010091009900950168002241F0C4
:100EC0008001016000684FF4E05100F08000009064
:100ED000009820464FF4E056FFF7C2FA0120029036
:100EE00002200196CDE9030501A92046FFF7E6F9A6
:100EF00006B070BD80B586B040F21400002200211B
:100F0000C2F20000C4F2010244F29F1340F2CF7C0F
:100F1000CDE90411CDE90211CDE90011C0E90023AA
:100F2000C0E9021CC0E904118161FFF70DFE002831
:100F300018BFFFF7BDF94FF48050029040F2140043
:100F4000C2F2000002A9FFF74FFE002818BFFFF70A
:100F5000AFF90020CDE9000040F21400C2F2000019
:100F60006946FFF795FD002818BFFFF7A1F906B005
:100F700080BD0000FEE70000FEE7000000F0070073
:100F800080F00703042B28BF04234FF0FF3C0338F5
:100F90000CFA03F338BF0020994381400CFA00F0AB
:100FA00022EA0000084370477047000070470000C5
:100FB000B0B501380024B4EB106F1CBF0120B0BDE8
:100FC0004EF21005CEF2000568604FF0FF300F21A1
:100FD00000F056F90720AC6028602046B0BD000044
:100FE00080B5FFF749FA80BD70B592B006AC2046D7
:100FF0003021FFF71DF9002543F640000595CDE9A6
:101000000355CDE901550095C4F20200016802269E
:1010100041F080510160006800F08050009000981D
:1010200047F200000095C4F20000016841F48041DD
:101030000160006800F48040009000980120069054
:101040004FF4803007904FF480000D9006200E90F2
:10105000A8200C96CDE90F06042011902046FFF73A
:1010600075FB88B90F20CDE901064FF4A05004901C
:101070004FF48050059001A805210395FFF782FAEF
:10108000002804BF12B070BDFFF712F94EF6885069
:10109000CEF20000016841F4700101604FF0006180
:1010A00040F8801C7047000080B540F21400C2F286
:1010B0000000FFF703FE80BD10B540F6FF3E036859
:1010C000C4F2000E40F2004C7045C4F2010C0FDC7B
:1010D000B0F1804F19D040F20042C4F200029042B9
:1010E00013D040F60002C4F2000290420DD010E08E
:1010F00040F60042C4F20002904206D0604504D09F
:101100000022C4F20102904203D14A6823F0700326
:10111000134341F6FF72C4F2000290420DDC7045A9
:101120001FDCB0F1804F41D040F20042C4F2000217
:1011300090423BD040F6000221E043F6FF72C4F239
:101140000102904220DC42F20002C4F2000290420E
:101150002CD00022C4F20102904227D0604525D055
:1011600028E040F60042C4F2000290421ED041F650
:101170000002C4F20002904218D041F60042C4F2CC
:101180000002904212D015E044F20002C4F20102C3
:1011900090420BD044F60002C4F20102904205D006
:1011A00044F20042C4F20102904203D1CA6823F41F
:1011B0004073134323F080024B69D1F800E08C6840
:1011C0001A430260C46240F48062C0F828E06245BD
:1011D00004BF096901630121416110BDD0F808C055
:1011E00011432CF47F4C41EA032141EA0C01816058
:1011F00070470000826822F07002114341F007013D
:1012000081607047D0F820C0036A23F001030362B5
:10121000836923F0F00343EA02122CF00A03194316
:101220008261016270470000036A23F010030362C9
:101230008369D0F820C023F4704343EA02322CF0D3
:10124000A00343EA0111826101627047FEE70000DA
:10125000002848BF704700F01F01012202FA01F187
:101260004EF200124009CEF2000242F82010704700
:101270004EF60C50CEF200000068C0F3022070471A
:101280004EF6145300F00F02CEF2000309011A4487
:1012900000F16043B0F1FF3FC8BF03F56442117035
:1012A000704700004EF60C51CEF200010A684FF66E
:1012B000FF031A4060F30A2242F0806040F0FD70A4
:1012C00008607047FFF7E6F8FFF78EFEFFF7DAFDDC
:1012D000FFF710FE40F21400C2F20000FFF774FCAA
:1012E000FEE702E008C8121F08C1002AFAD17047C1
:1012F0007047002001E001C1121F002AFBD1704796
:1013000000000000000000000102030406070809B5
:10131000301300080000002010000000E212000856
:10132000401300081000002048040000F2120008DA
:101330000024F40001000000100000000000000084
:040000050800018965
:00000001FF
